:020000040800F2
:100000000020002059170008B1150008B915000894
:1000100000000000000000000000000000000000E0
:10002000000000000000000000000000C1150008F2
:100030000000000000000000CB150008D5150008E6
:10004000D917000800000000D9170008D9170008C8
:10005000D9170008D9170008D9170008D9170008C0
:1000600000000000D9170008D9170008E51500089E
:10007000D9170008D917000800000000FD15000876
:100080000000000000000000000000000000000070
:10009000D91700080000000000000000D917000870
:1000A00000000000D9170008000000000000000058
:1000B000D9170008D9170008000000000000000050
:1000C00010B5064C2378002B07D1054B002B02D02E
:1000D000044800E000BF0123237010BD6800002029
:1000E0000000000030650008044B10B5002B03D061
:1000F0000349044800E000BF10BDC04600000000F6
:100100006C0000203065000803B4714649084000C7
:100110004900095E49008E4403BC70470022430831
:100120008B4274D303098B425FD3030A8B4244D3BF
:10013000030B8B4228D3030C8B420DD3FF22090201
:1001400012BA030C8B4202D31212090265D0030BC0
:100150008B4219D300E0090AC30B8B4201D3CB03B6
:10016000C01A5241830B8B4201D38B03C01A5241F8
:10017000430B8B4201D34B03C01A5241030B8B42FA
:1001800001D30B03C01A5241C30A8B4201D3CB02E5
:10019000C01A5241830A8B4201D38B02C01A5241CA
:1001A000430A8B4201D34B02C01A5241030A8B42CD
:1001B00001D30B02C01A5241CDD2C3098B4201D3E5
:1001C000CB01C01A524183098B4201D38B01C01A63
:1001D000524143098B4201D34B01C01A52410309DA
:1001E0008B4201D30B01C01A5241C3088B4201D389
:1001F000CB00C01A524183088B4201D38B00C01A36
:10020000524143088B4201D34B00C01A5241411A5C
:1002100000D20146524110467047FFE701B5002069
:1002200000F006F802BDC0460029F7D076E7704717
:100230007047C046844608006146FFE71FB500F0DE
:10024000A5FA002801D40021C8421FBD10B500F056
:100250002DFA4042013010BD10B500F097FA002889
:1002600001DB002010BD012010BDC04610B500F01C
:100270008DFA002801DD002010BD012010BDC04610
:1002800010B500F03BFA002801DC002010BD012071
:1002900010BDC04610B500F031FA002801DA002088
:1002A00010BD012010BDC046002B11D1002A0FD176
:1002B000002900D1002802D00021C943080007B45A
:1002C000024802A14018029003BDC04665FFFFFF2F
:1002D00003B4684601B5029800F006F8019B9E46FB
:1002E00002B00CBC7047C046F0B557464E46454676
:1002F000DE46E0B504000D009246994683B08B427D
:1003000030D82DD04946504600F046FC2900060062
:10031000200000F041FC331A9846203B34D49B4621
:1003200053465A46934042461F00534693401E0090
:10033000AF423BD8AF4200D179E05B46A41BBD4140
:10034000002B00DA76E000220023009201930123C3
:100350005A4693400193012342469340009329E07B
:100360008242CFD900220023009201930C9B002BE4
:1003700001D01C605D600098019903B0F0BCBB46E1
:10038000B246A946A046F0BD42469B4620239B1A92
:100390005246DA40414613004A468A401700424618
:1003A0001F43534693401E00AF42C3D9002200238F
:1003B000009201934346002BD8D0FB0772081A43E2
:1003C00046467B080EE0AB4201D1A2420CD8A41AEB
:1003D0009D41012024196D410021013E24184D4109
:1003E000002E06D0AB42EED9013E24196D41002EFD
:1003F000F8D1009801995B4600196941002B24DB74
:100400002B005A464446D3402A00E2401C005B467B
:100410001500002B2ADB26009E40330026004746AD
:10042000BE403200801A9941009001919EE7A3429C
:10043000BCD882E74246202300219B1A002200916B
:1004400001920122DA40019285E7424620239B1A5D
:100450002A0046469A402300F340444613432A00AC
:10046000E2401C005B461500002BD4DA42462F0008
:100470002023260097409B1ADE403B003343CDE704
:10048000F0B546464F46D6464502C0B5C30F4700B5
:1004900098460E1C6D0A3F0E5BD0FF2F21D08023A3
:1004A000ED00DB041D43002399469A467F3F74020A
:1004B0007300640A1B0EF60F002B20D0FF2B43D0D5
:1004C00080220020E400D20414437F3B4246FF1AFE
:1004D0004B4672400F2B00D99DE071499B00CB58D1
:1004E0009F46002D5AD108239946063B74029A462E
:1004F0007300FF27640A1B0EF60F002BDED1002CC1
:100500003BD1012342464946724019430E2918D86F
:100510006448890041588F465346022B00D1B8E009
:10052000032B6ED042462C00012B40D1002000242A
:10053000C0052043D2071043E0BCBA46B146A846E6
:10054000F0BDFF200024F3E7002C20D10223FF3F61
:10055000D8E7002D05D104239946033B00279A468E
:10056000A5E7280000F0FAFA7627431F9D400023F4
:100570007F4299469A463F1A99E7200000F0EEFA2A
:10058000431F9C4076235B421B1A00209EE70323F7
:100590004A461A4391460320FC3397E70C239946B9
:1005A000093BFF279A4682E703282CD03200380007
:1005B0007F30002847DD630704D00F232340042B3E
:1005C00000D00434230103D53800374B80301C4061
:1005D000FE28B6DCA401640AC0B2A9E78024002288
:1005E000FF20E403A4E78023DB031D4201D01C426B
:1005F0000BD08024E4032C4364024246FF20640AAB
:1006000096E746462C008023DB031C43640232003D
:10061000FF20640A8CE76D01600185422DD21B2307
:100620000024013F0126290064006D00002901DB40
:10063000854201D32D1A3443013B002BF3D16B1EAD
:100640009D412C43B3E701231B1A1B2B00DD6DE7F3
:1006500021009E37D940BC400B00611E8C412343D2
:10066000590704D00F211940042900D0043359013F
:1006700013D49B0100205C0A5AE71A2301242D1A87
:10068000D0E7981E43425841404232000024C0B295
:100690004EE74246FF2000244AE70120002447E7B6
:1006A00064650008A4650008FFFFFFF770B542000D
:1006B0004E024C0045026D0A120EC30F760A240E3C
:1006C000C90FFF2A10D0FF2C0CD00120A2420AD162
:1006D000B54208D18B420FD0002A04D12800431E16
:1006E000984100E0012070BD0120FF2CFBD1354373
:1006F000F9D14B401800F6E70020F4E730B542008E
:1007000044024D02C30F4800640A120E6D0A000E27
:10071000C90FFF2A18D0FF280AD0002A1ED10028AE
:100720000AD1002D29D0002C2DD14800013830BD30
:10073000002D25D1002A01D1002CF6D08B4219D0F2
:1007400001205B421843F2E7002C19D1FF28F7D1B2
:10075000002D15D100208B42F2D1E8E70028EFD020
:100760008B42EDD18242EBDC04DBAC42E8D80020C6
:10077000AC42DCD258000138D9E7002CD7D0DFE7F3
:1007800002204042D3E78B42DAD1EEE730B5420097
:1007900044024D02C30F4800640A120E6D0A000E97
:1007A000C90FFF2A17D0FF280AD0002A1BD1002822
:1007B0000AD1002D1DD0002C2DD14800013811E0A8
:1007C000002D0ED1002A01D1002CF6D08B420CD185
:1007D0005800013806E0002C03D1FF2805D1002D78
:1007E00015D0022030BD002806D101205B421843FD
:1007F000F8E7002CF6D0F8E78B42F6D18242F4DC21
:10080000E6DBAC42F1D80020AC42EBD2E0E70020BE
:100810008B42EAD1E6E78B42E7D1F2E7F0B54F46EB
:100820004646D6464400C0B546020F1C760A240E42
:10083000C50F002C00D1DAE0FF2C74D08023F60025
:10084000DB041E43002399469A467F3C7B025B0AE9
:1008500098467B001B0EFF0F002B74D0FF2B00D19E
:100860008EE042468021D200C90411437F3B2A001A
:10087000E4184B467A408846D2B20A2B75DC4B46C8
:100880000020022B0FDD494601238B40A621C90021
:100890000B4269D1902189000B4200D000E18821F0
:1008A000194200D0F5E041460904090C434608000E
:1008B000350C36041B0C360C704369435E435D43B4
:1008C0007618030C9B19994203D9802149028C4662
:1008D000654400041904000C09188E01701E86413D
:1008E0001B0C890E5B190E439B011E431B016CD42C
:1008F00023007F33002B00DCB1E0150071070BD023
:100900000F2021003040042806D00436320103D5E0
:100910006E4B1E400B008033FE2B00DDBDE0B201AC
:10092000520ADBB248E0002E00D092E0082399463C
:10093000063B9A467B025B0A98467B00FF241B0E0F
:10094000FF0F002B8AD14246002A64D1494601326A
:10095000114389460A2908DC7D400120EAB20229B8
:1009600091DC1500002227E015005346022B00D130
:1009700093E0032B1AD0012B2CD1002300221BE083
:100980004346FF34002B55D003214B460B4319003F
:100990000A2B00DC92E00F2B00D08CE08022D203E7
:1009A000164203D04346134200D17DE08022D20399
:1009B00032435202520AFF23D805ED071043284361
:1009C000E0BCBA46B146A846F0BD01231500710847
:1009D0001E400E4323008033611C002B41DD720753
:1009E00094D00F223240042A00D08EE78EE7002EEA
:1009F00005D104239946033B00249A4626E730009C
:100A000000F0ACF87624431F9E40002364429946D0
:100A10009A46241A1AE7404600F0A0F84B46241ADA
:100A2000763C0A2BA1DC4346053883407D4098463E
:100A3000EAB224E74A46023313432A007A40D2B28C
:100A40000A2B92DC49461500002926D0994602203F
:100A500019E70C239946093BFF249A46F6E6150050
:100A600021000122D31A1B2B00DD86E79E313200C4
:100A70008E40DA40731E9E413243530704D00F2349
:100A80001340042B00D00432530110D5012300225F
:100A900092E73D004646824667E7FF2300228BE748
:100AA00080220025D20386E73D001A4383E79201A6
:100AB0000023520A80E73D00464677E72A000123DB
:100AC0007A408B400320D2B2E9E6C046FFFFFFF731
:100AD00010B5041E0DD000F041F89E231B1A962B72
:100AE0000CDC082834D0083884406402640AD8B288
:100AF00001E000200024C005204310BD992B13DC29
:100B0000421F9440144A224061071CD00F2121400B
:100B1000042918D00432D408520115D59F23640249
:100B2000181A640AC0B2E6E7020021001B329140A5
:100B30000A00511E8A410521091ACC401443064A75
:100B400022406107E2D1D4086402640AD8B2D2E735
:100B50006402640A8E30CEE7FFFFFFFB1C210123F5
:100B60001B04984201D3000C10391B0A984201D390
:100B7000000A08391B09984201D30009043902A26E
:100B8000105C40187047C0460403020201010101D5
:100B9000000000000000000010B5002903D1FFF79D
:100BA000DDFF203002E00800FFF7D8FF10BDC0468F
:100BB00080B500AF084B180001F018F8064B64210F
:100BC000180001F067F8044B180001F0FFF803006B
:100BD0001800BD4680BDC0468400002080B582B0AC
:100BE00000AF786039607868FFF772FF031C3968DE
:100BF000181CFFF713FE031C0449181CFFF740FCE8
:100C0000031C181CBD4602B080BDC04600F07F45E5
:100C100080B582B000AF786004497868FFF730FC97
:100C2000031C181CBD4602B080BDC046C3F5A83EDB
:100C300080B584B000AFFFF7BBFF0300BB60114A73
:100C4000BB68111C1800FFF7C9FF031C7B607B68A1
:100C5000181CFFF7DDFF031CFB600021F868FFF79D
:100C6000FBFA031E01D00023FB600749F868FFF779
:100C700007FB031E01D0044BFB60FB68181CBD463C
:100C800004B080BD333353400000204180B582B0B2
:100C900000AF786006497868FFF7C0FD031C05497E
:100CA000181CFFF7EDFB031C181CBD4602B080BDED
:100CB0000000C8420000204180B59CB000AF00F0A9
:100CC0008DFD00F03DF800F095FA00F075FA00F0A7
:100CD0000DF900F0A7F800F03FFA00F047F900F036
:100CE00065F900F0E3F93B1D180064231A000021A8
:100CF00004F02EFC0023FB660023BB660D490E4B5F
:100D00006422180003F05CFB0C4B180000F0C2FAE0
:100D1000FFF78EFF031CFB66FB6E181CFFF7B6FF88
:100D2000031CBB66FA239B00180000F0C7FDC046F9
:100D3000EEE7C04694020020C40100204865000888
:100D400090B599B000AF2C243B19180034231A0039
:100D5000002104F0FDFB1823FB18180014231A00CF
:100D6000002104F0F5FB3B00180018231A000021B5
:100D700004F0EEFB294B1B68294A1A40274B8021BF
:100D800009010A431A6021007B1818221A607B1897
:100D900001225A617B1801229A617B180022DA61D4
:100DA0007B18A02212021A627B1800225A627B185A
:100DB000180001F011FE031E01D000F087FA18217F
:100DC0007B180F221A607B1800225A607B180022C1
:100DD0009A607B180022DA607B1800221A617B1867
:100DE0000021180002F074F9031E01D000F06EFA21
:100DF0003B000A221A603B0000229A603B0000225E
:100E00001A613B00180002F067FB031E01D000F0DE
:100E10005DFAC046BD4619B090BDC04600700040A6
:100E2000FFE7FFFF80B582B000AF3B00180008234A
:100E30001A00002104F08CFB2A4B2B4A1A60294B24
:100E40000022DA63274BC02212065A60254B00228B
:100E50009A60244B00229A63224B01221A61214B93
:100E60000022DA601F4B2022002199541D4B2122C1
:100E7000002199541B4B00229A621A4BC222FF3266
:100E80005A62184B2C2200219954164B04225A61A5
:100E9000144B00221A63134B00229A61114B01225A
:100EA0005A63104B0022DA610E4B180000F02AFD45
:100EB000031E01D000F00AFA3B0001221A603B0039
:100EC000802252015A603A00064B1100180000F0CF
:100ED00089FF031E01D000F0F9F9C046BD4602B0FB
:100EE00080BDC046840000200024014080B500AFD2
:100EF0001C4B1D4A1A601B4BC122D2005A60194B71
:100F000000229A60174B0122DA60164B00221A6108
:100F1000144B00225A61134B00229A61114B00229C
:100F2000DA61104B00221A620E4B180001F0C4FB6C
:100F3000031E01D000F0CAF90A4B0021180001F08D
:100F400061FC031E01D000F0C1F9064B002118001E
:100F500001F0A4FC031E01D000F0B8F9C046BD4664
:100F600080BDC046E00000200054004080B500AFC6
:100F70000B4B0C4A1A600A4B00225A60084B0A4A73
:100F8000DA60074B084A9A60054B180001F0D2FC62
:100F9000031E01D000F09AF9C046BD4680BDC04690
:100FA0003401002000300040FF0F000080B58AB0FF
:100FB00000AF1823FB18180010231A00002104F0BA
:100FC000C7FA1023FB18180008231A00002104F0A8
:100FD000BFFA3B00180010231A00002104F0B8FAF1
:100FE000304B8022D2051A602E4B47225A602D4B7F
:100FF00000229A602B4B2C4ADA602A4B00221A619D
:10100000284B00225A61274B180002F091FB031E67
:1010100001D000F05BF918217B18802252011A6080
:101020007A18204B1100180002F09CFD031E01D01D
:1010300000F04CF91B4B180002F0BAFB031E01D064
:1010400000F044F910217B1800221A607B1800225E
:101050005A607A18134B1100180003F06DF8031E44
:1010600001D000F033F93B0060221A603B00FA2205
:1010700052005A603B0000229A603B000022DA6076
:101080003900084B0022180002F0A6FC031E01D014
:1010900000F01CF9034B180000F0DEF9C046BD4615
:1010A0000AB080BD44010020E703000080B586B08F
:1010B00000AF0823FB18180010231A00002104F0C9
:1010C00047FA3B00180008231A00002104F040FAF8
:1010D0001E4B1F4A1A601D4B47225A601B4B0022B1
:1010E0009A601A4B1B4ADA60184B00221A61174BA0
:1010F00000225A61154B180002F01AFB031E01D0A2
:1011000000F0E4F808217B18802252011A607A1856
:101110000E4B1100180002F025FD031E01D000F057
:10112000D5F83B0000221A603B0000225A603A00CA
:10113000064B1100180002F0FFFF031E01D000F063
:10114000C5F8C046BD4606B080BDC046840100203B
:1011500000080140FFFF000080B500AF144B154AA6
:101160001A60134BE12252025A60114B00229A601E
:101170000F4B0022DA600E4B00221A610C4B0C223E
:101180005A610B4B00229A61094B0022DA61084B2D
:1011900000221A62064B00225A62054B180003F027
:1011A0001BF8031E01D000F091F8C046BD4680BD7B
:1011B000C40100200044004080B582B000AF0C4B59
:1011C0001A6B0B4B01210A431A63094B1B6B01225B
:1011D00013407B607B68002200210B2000F09EFF03
:1011E0000B2000F0B0FFC046BD4602B080BDC04637
:1011F0000010024080B584B000AF144BDA6A134B84
:1012000004210A43DA62114BDB6A04221340FB60BB
:10121000FB680E4BDA6A0D4B01210A43DA620B4B75
:10122000DB6A01221340BB60BB68084BDA6A074BDC
:1012300002210A43DA62054BDB6A022213407B601B
:101240007B68C046BD4604B080BDC0460010024069
:1012500080B582B000AF78607B681B68094A934212
:101260000BD1094A094B1100180004F0DFF80649B8
:10127000074B6422180003F0A3F8C046BD4602B035
:1012800080BDC04600440040940200204C65000828
:10129000C401002080B582B000AF78607B68084A46
:1012A0000848642104F0D2F8FA235B000549064897
:1012B000642202F0E5FFC046BD4602B080BDC046D4
:1012C0005C650008F8020020C401002080B500AF72
:1012D00072B6C046C046FDE780B500AF074B5A6BFB
:1012E000064B01210A435A63044B9A6B034B80213E
:1012F00049050A439A63C046BD4680BD00100240BE
:1013000090B589B000AF78600C243B191800142305
:101310001A00002104F01CF97B681B68144A9342F0
:1013200022D1144B5A6B134B802189000A435A6314
:10133000104BDA6A0F4B01210A43DA620D4BDB6A6C
:1013400001221340BB60BB683B1901221A603B19A4
:1013500003225A603B1900229A603A19A023DB0548
:101360001100180001F032F8C046BD4609B090BD2A
:10137000002401400010024090B589B000AF7860B1
:101380000C243B19180014231A00002104F0E0F883
:101390007B681B68174A934228D1174BDA6A164BB1
:1013A00002210A43DA62144BDB6A02221340BB605B
:1013B000BB6821007B18C0221A607B1812225A6079
:1013C0007B1800229A607B180322DA607B180122C6
:1013D0001A617B18094A1900100000F0F7FF064B4C
:1013E0009A6B054B802189030A439A63C046BD4628
:1013F00009B090BD005400400010024000040050AD
:1014000080B582B000AF78607B681A688023DB0506
:101410009A420ED10E4B9A6B0D4B01210A439A63EF
:10142000002200210F2000F079FE0F2000F08BFE3B
:101430000AE07B681B68074A934205D1044B5A6B4C
:10144000034B04210A435A63C046BD4602B080BD27
:10145000001002400008014090B589B000AF7860EC
:101460000C243B19180014231A00002104F070F812
:101470007B681A688023DB059A4222D1134BDA6A13
:10148000124B01210A43DA62104BDB6A012213403E
:10149000BB60BB6821007B1820221A607B180222E7
:1014A0005A607B1800229A607B180022DA607B1851
:1014B00005221A617A18A023DB051100180000F03C
:1014C00085FFC046BD4609B090BDC0460010024031
:1014D00090B589B000AF78600C243B191800142334
:1014E0001A00002104F034F87B681B682C4A9342F0
:1014F00052D12C4B9A6B2B4B802189020A439A6361
:10150000284BDA6A274B01210A43DA62254BDB6A52
:1015100001221340BB60BB6821007B180C221A60BB
:101520007B1802225A607B1800229A607B180322E3
:10153000DA607B1804221A617A18A023DB051100F7
:10154000180000F043FF184B184A1A60164B04228B
:101550005A60154B00229A60134B0022DA60124B3E
:1015600080221A61104B00225A610F4B00229A61AF
:101570000D4B0022DA610C4B00221A620A4B180054
:1015800000F0FEFD031E01D0FFF7A0FE7B68064AB7
:101590005A67054B7A689A62C046BD4609B090BD4D
:1015A00000440040001002404C020020580002405D
:1015B00080B500AFC046FDE780B500AFC046FDE78F
:1015C00080B500AFC046BD4680BD80B500AFC04607
:1015D000BD4680BD80B500AF00F054F9C046BD46A1
:1015E00080BD000080B500AF034B180000F040FE46
:1015F000C046BD4680BDC0464C02002080B500AF4D
:10160000034B180002F01CF9C046BD4680BDC04621
:101610004401002080B586B000AFF860B9607A6000
:1016200000237B610AE000E000BF0100BB685A1C98
:10163000BA60CAB21A707B6901337B617A697B68D0
:101640009A42F0DB7B681800BD4606B080BD80B5CD
:1016500086B000AFF860B9607A6000237B6109E072
:10166000BB685A1CBA601B78180000E000BF7B6999
:1016700001337B617A697B689A42F1DB7B681800F1
:10168000BD4606B080BD80B582B000AF7860012352
:101690005B421800BD4602B080BD80B582B000AF8D
:1016A000786039603B68802292015A6000231800FC
:1016B000BD4602B080BD80B582B000AF7860012326
:1016C0001800BD4602B080BD80B584B000AFF860A0
:1016D000B9607A6000231800BD4604B080BD0000E8
:1016E00080B586B000AF7860144A154BD31A7B6181
:1016F0007B693B61134B1B68002B02D1114B124AD3
:101700001A60104B1A687B68D3183A699A4207D25C
:1017100003F074FF03000C221A6001235B4209E00E
:10172000084B1B68FB60074B1A687B68D218054B97
:101730001A60FB681800BD4606B080BD002000207E
:10174000000400005C030020B004002080B500AF5E
:10175000C046BD4680BD000013488546FFF7F6FF32
:1017600012480168090E124A914205D111481249E6
:10177000016012481249016012481349134A0023BC
:1017800002E0D458C4500433C4188C42F9D3104A30
:10179000104C002301E013600432A242FBD303F09B
:1017A00033FFFFF789FAFEE7002000200400000065
:1017B0001F00000034100240010000000000014042
:1017C0000000000000000020680000209066000873
:1017D00068000020B0040020FEE7000080B582B061
:1017E00000AFFB1D00221A700B4B1A680A4B4021F8
:1017F0000A431A60032000F011F8031E03D0FB1DFA
:1018000001221A7001E0FFF767FDFB1D1B7818002D
:10181000BD4602B080BDC0460020024090B583B0F6
:1018200000AF7860144B1C68144B1B781900FA2326
:101830009800FEF773FC030019002000FEF76EFC11
:101840000300180000F08FFC031E01D001230FE0FD
:101850007B68032B0BD8796801235B4200221800B8
:1018600000F05CFC064B7A681A60002300E001235C
:101870001800BD4603B090BD000000200800002005
:101880000400002080B500AF054B1B781A00054B03
:101890001B68D218034B1A60C046BD4680BDC046C7
:1018A000080000206003002080B500AF024B1B68D9
:1018B0001800BD4680BDC0466003002080B584B0DE
:1018C00000AF7860FFF7F0FF0300BB607B68FB6050
:1018D000FB68013305D00A4B1B781A00FB689B1884
:1018E000FB60C046FFF7E0FF0200BB68D31AFA684E
:1018F0009A42F7D8C046C046BD4604B080BDC04637
:101900000800002080B582B000AF78607B68002BB3
:1019100001D1012359E17B685B6D002B0AD17B6803
:1019200000229A657B685022002199547B68180038
:10193000FFF7E6FC7B685B6D10221340102B05D08F
:101940007B681B689B68042213400BD07B685B6D2F
:1019500010221A437B685A657B68502200219954F3
:10196000012332E17B685B6D9A4A134002221A43DD
:101970007B685A657B681B689B6803221340012BB8
:1019800008D17B681B681B6801221340012B01D121
:10199000012300E00023002B49D17B685A68C02353
:1019A0001B069A420BD07B685A688023DB059A425B
:1019B00005D07B685A6880231B069A4211D17B6848
:1019C0001B681A697B681B68920092081A617B6821
:1019D0001B6819697B685A687B681B680A431A612F
:1019E00014E07B681B681A697B681B689200920888
:1019F0001A61794B1A68784B78490A401A60764B1D
:101A000019687B685A68744B0A431A607B681B68C4
:101A1000DA687B681B6818218A43DA607B681B6878
:101A2000D9687B689A687B681B680A43DA606A4BEE
:101A30001A68694B6A490A401A60674B19687B68E3
:101A40005B6B5A06644B0A431A607B681B689A6892
:101A500080235B05134008D17B681B689A687B680C
:101A60001B68802149050A439A607B681B68DA6815
:101A70007B681B685B490A40DA607B681B68D96831
:101A80007B68DA687B681B69022B01D1042300E0C4
:101A900000231A437B6820201B5C5B031A437B688E
:101AA0002C201B5C5B001A437B681B6B1A437B6812
:101AB0009B699B031A437B68DB69DB031A437B68E2
:101AC0001B680A43DA607B685A6AC223FF339A4272
:101AD0000BD07B681B68D9687B685A6A7B689B6AF5
:101AE0001A437B681B680A43DA607B6821229B5C8F
:101AF000012B1AD17B6820229B5C002B09D17B68CB
:101B00001B68DA687B681B68802149020A43DA6037
:101B10000BE07B685B6D20221A437B685A657B680B
:101B20009B6D01221A437B689A657B68DB6B012BF6
:101B30001FD17B681B681A697B681B682A490A40A9
:101B40001A617B681B6819697B681A6C7B685B6C1F
:101B50001A437B689B6C1A437B681B680A431A61B3
:101B60007B681B681A697B681B6801210A431A613C
:101B70000EE07B681B681B6901221340012B07D113
:101B80007B681B681A697B681B6801218A431A619C
:101B90007B681B685A697B681B6807218A435A6106
:101BA0007B681B6859697B689A6B7B681B680A4372
:101BB0005A617B6800229A657B685B6D03229343C0
:101BC00001221A437B685A6500231800BD4602B003
:101BD00080BDC046FDFEFFFF08270140FFFFC3FF99
:101BE000FFFFFFFD1902FEFF03FCFFFF90B585B06C
:101BF00000AF78600F23FB1800221A707B681B6807
:101C00009B680422134038D17B6850229B5C012BD7
:101C100001D1022338E07B685022012199547B686E
:101C2000DB69012B07D00F23FC187B68180000F03C
:101C300041F9030023700F23FB181B78002B20D1E0
:101C40007B685B6D124A1340802252001A437B6806
:101C50005A657B6800229A657B685022002199545E
:101C60007B681B681C221A607B681B689A687B680B
:101C70001B6804210A439A6003E00F23FB18022229
:101C80001A700F23FB181B781800BD4605B090BDD5
:101C9000FEF0FFFF80B584B000AF786039600023AC
:101CA000BB600023FB607B685B69082B02D10823C3
:101CB000FB6014E07B681B68DB6801221340012B8A
:101CC0000BD17B685B6D20221A437B685A657B6869
:101CD000502200219954012372E00C23FB60FFF78E
:101CE000E3FD0300BB601FE03B6801331CD03B6891
:101CF000002B07D0FFF7D8FD0200BB68D31A3A6863
:101D00009A4211D27B681B681B68FA6813400BD19A
:101D10007B685B6D04221A437B685A657B6850229E
:101D20000021995403234BE07B681B681B68FA6809
:101D30001340D9D07B685B6D802292001A437B6888
:101D40005A657B681B68DA68C0231B0113402ED1DB
:101D50007B6820229B5C002B29D17B681B681B6859
:101D600008221340082B22D17B681B689B68042241
:101D7000134010D17B681B685A687B681B680C2174
:101D80008A435A607B685B6D0F4A134001221A43F5
:101D90007B685A650BE07B685B6D20221A437B6889
:101DA0005A657B689B6D01221A437B689A657B6844
:101DB0009B69002B03D17B681B680C221A600023EF
:101DC0001800BD4604B080BDFEFEFFFF80B582B0A6
:101DD00000AF78607B681B681B6C1800BD4602B0C2
:101DE00080BD000080B582B000AF786039607B684C
:101DF00050229B5C012B01D1022350E07B685022D2
:101E0000012199547B681B689B68042213400BD006
:101E10007B685B6D20221A437B685A657B68502281
:101E20000021995401233AE03B685B681E4A9342C3
:101E300018D07B681B68996A3B681B685B035A0B68
:101E40007B681B680A439A623B681A6880239B027E
:101E500013401FD0154B1A68144B8021C9030A4345
:101E60001A6017E07B681B689A6A3B681B685B0313
:101E70005B0BD9437B681B680A409A623B681A680F
:101E800080239B02134005D0084B1A68074B084972
:101E90000A401A607B6850220021995400231800E0
:101EA000BD4602B080BDC0460110000008270140B9
:101EB000FFFFBFFF80B584B000AF78600023FB60F8
:101EC0007B681B689B6803221340012B08D17B6849
:101ED0001B681B6801221340012B01D1012300E084
:101EE0000023002B46D17B681B689B68244A134063
:101EF0000DD07B685B6D10221A437B685A657B6846
:101F00009B6D01221A437B689A65012333E07B684D
:101F10001B689A687B681B6801210A439A6001204C
:101F200000F030F8FFF7C0FC0300FB601BE0FFF798
:101F3000BBFC0200FB68D31A0A2B14D97B681B6810
:101F40001B6801221340012B0DD07B685B6D1022B2
:101F50001A437B685A657B689B6D01221A437B6834
:101F60009A65012307E07B681B681B680122134008
:101F7000012BDCD100231800BD4604B080BDC04653
:101F80001700008080B584B000AF78600B4B1B68F1
:101F90000B491800FEF7C2F803001A007B68534390
:101FA000FB6002E0FB68013BFB60FB68002BF9D1A2
:101FB000C046C046BD4604B080BDC04600000020FB
:101FC00040420F0080B582B000AF0200FB1D1A70C6
:101FD000FB1D1B787F2B09D8FB1D1B781A001F23C4
:101FE0001A40044B012191400A001A60C046BD46C8
:101FF00002B080BD00E100E090B583B000AF020008
:102000003960FB1D1A70FB1D1B787F2B28D82F4AC7
:10201000FB1D1B785BB29B08C0339B009B58FA1DCD
:102020001278110003220A40D200FF2191400A00D9
:10203000D2431A4011003B689B01FF221A40FB1D4E
:102040001B78180003230340DB009A401F48FB1D48
:102050001B785BB29B080A43C0339B001A5031E0E7
:102060001B4AFB1D1B7819000F230B40083B9B08E4
:1020700006339B00D31804331B68FA1D1278110035
:1020800003220A40D200FF2191400A00D2431A40A5
:1020900011003B689B01FF221A40FB1D1B781800B2
:1020A00003230340DB009A400948FB1D1B781C00FA
:1020B0000F232340083B9B080A4306339B00C318A9
:1020C00004331A60C046BD4603B090BD00E100E095
:1020D00000ED00E080B582B000AF78607B685A1EEA
:1020E00080235B049A4201D3012310E00A4B7A68F3
:1020F000013A5A6001235B4203211800FFF77CFF7D
:10210000054B00229A60044B07221A600023180036
:10211000BD4602B080BDC04610E000E080B584B08E
:1021200000AFB9607A600F217B18021C1A70BA6880
:102130007B181B785BB211001800FFF75DFFC046EB
:10214000BD4604B080BD80B582B000AF0200FB1D6B
:102150001A70FB1D1B785BB21800FFF733FFC046F7
:10216000BD4602B080BD80B582B000AF78607B68AC
:102170001800FFF7AFFF03001800BD4602B080BD96
:1021800080B584B000AF78607B68002B01D101235B
:1021900061E07B681B68324A94466344142118004E
:1021A000FDF7BCFF03009A007B685A647B682D4AE8
:1021B0001A647B682522022199547B681B681B687E
:1021C000FB60FB68284A1340FB607B689A687B6869
:1021D000DB681A437B681B691A437B685B691A4397
:1021E0007B689B691A437B68DB691A437B681B6ABF
:1021F0001343FA681343FB607B681B68FA681A6034
:102200007B689A688023DB019A4218D0174B1A68C2
:102210007B685B6C1C210B400F2199400B00D9435C
:10222000124B0A401A60114B19687B685A687B6828
:102230005B6C1C2003409A400C4B0A431A607B687D
:102240000022DA637B682522012199547B682422CD
:102250000021995400231800BD4604B080BDC0463B
:10226000F8FFFDBF000002400F80FFFFA800024002
:1022700080B584B000AF78607B681B6C1B68FB6026
:102280007B681B681B68BB607B685B6C1C2213400F
:1022900004229A401300FA68134026D0BB68042237
:1022A000134022D07B681B681B682022134007D193
:1022B0007B681B681A687B681B6804218A431A6064
:1022C0007B685B6C1C221A407B681B6C042191406C
:1022D0000A005A607B681B6B002B00D171E07B68A1
:1022E0001B6B7A68100098476BE07B685B6C1C2264
:1022F000134002229A401300FA6813402DD0BB68A5
:102300000222134029D07B681B681B6820221340DF
:102310000BD17B681B681A687B681B680A218A439B
:102320001A607B682522012199547B685B6C1C2212
:102330001A407B681B6C022191400A005A607B683E
:102340002422002199547B68DB6A002B39D07B68FA
:10235000DB6A7A681000984733E07B685B6C1C226C
:10236000134008229A401300FA6813402AD0BB6831
:102370000822134026D07B681B681A687B681B689C
:102380000E218A431A607B685B6C1C221A407B68B2
:102390001B6C012191400A005A607B680122DA63BC
:1023A0007B682522012199547B68242200219954BD
:1023B0007B685B6B002B05D07B685B6B7A681000D9
:1023C0009847C046C046BD4604B080BD80B586B0C3
:1023D00000AF7860396000237B610023FB6000233D
:1023E0003B614FE13B681B6801217A6991400A001B
:1023F0001340FB60FB68002B00D140E13B685B6849
:1024000003221340012B05D03B685B680322134075
:10241000022B30D17B689B683B617B695B000322A8
:102420009A401300DA433B6913403B613B68DA682A
:102430007B695B009A4013003A6913433B617B68F8
:102440003A699A607B685B683B6101227B699A40CC
:102450001300DA433B6913403B613B685B681B092F
:1024600001221A407B699A4013003A6913433B6189
:102470007B683A695A603B685B6803221340032B10
:1024800017D07B68DB683B617B695B0003229A4065
:102490001300DA433B6913403B613B689A687B69F0
:1024A0005B009A4013003A6913433B617B683A69C9
:1024B000DA603B685B6803221340022B23D17B69FF
:1024C000DA087B6808329200D3583B617B690722A7
:1024D00013409B000F229A401300DA433B691340DC
:1024E0003B613B681A697B6907210B409B009A405E
:1024F00013003A6913433B617B69DA087B68083251
:1025000092003969D1507B681B683B617B695B0035
:1025100003229A401300DA433B6913403B613B6856
:102520005B6803221A407B695B009A4013003A699A
:1025300013433B617B683A691A603B685A68C02361
:102540009B02134000D19AE0544B5A6B534B01212C
:102550000A435A63524A7B699B0802339B009B588B
:102560003B617B69032213409B000F229A401300BA
:10257000DA433B6913403B617A68A023DB059A424A
:1025800019D07B68474A934213D07B68464A9342EE
:102590000DD07B68454A934207D07B68444A9342FA
:1025A00001D1052308E0062306E0032304E002230B
:1025B00002E0012300E000237A6903210A4092002F
:1025C00093403A6913433B6135497B699B08023369
:1025D0009B003A695A50374B9B683B61FB68DA4372
:1025E0003B6913403B613B685A6880235B0313409F
:1025F00003D03A69FB6813433B612E4B3A699A60FA
:102600002C4BDB683B61FB68DA433B6913403B6161
:102610003B685A6880239B03134003D03A69FB68E8
:1026200013433B61234B3A69DA60224B5B683B61A1
:10263000FB68DA433B6913403B613B685A6880237F
:102640009B02134003D03A69FB6813433B61194B6B
:102650003A695A60174B1B683B61FB68DA433B6978
:1026600013403B613B685A6880235B02134003D0F0
:102670003A69FB6813433B610E4B3A691A607B6908
:1026800001337B613B681A687B69DA40131E00D016
:10269000A8E6C046C046BD4606B080BD0010024058
:1026A000000001400004005000080050000C0050E1
:1026B000001C00500004014080B582B000AF78607B
:1026C0007B68002B01D101238FE07B6841229B5C5A
:1026D000DBB2002B07D17B684022002199547B6834
:1026E0001800FEF749FE7B684122242199547B683B
:1026F0001B681A687B681B6801218A431A607B6823
:102700005A687B681B683B490A401A617B681B68F2
:102710009A687B681B6838490A409A607B68DB6866
:10272000012B08D17B689A687B681B6880210902AD
:102730000A439A6007E07B689A687B681B6884217B
:1027400009020A439A607B68DB68022B09D17B6827
:102750001B685A687B681B68802109010A435A601C
:1027600007E07B681B685A687B681B6823490A403E
:102770005A607B681B685A687B681B6820490A435B
:102780005A607B681B68DA687B681B681A490A40D4
:10279000DA607B681A697B685B691A4311007B68A1
:1027A0009B691A027B681B680A43DA607B68D969F7
:1027B0007B681A6A7B681B680A431A607B681B681F
:1027C0001A687B681B6801210A431A607B68002233
:1027D0005A647B684122202199547B6800221A6345
:1027E0007B6842220021995400231800BD4602B0A4
:1027F00080BDC046FFFFFFF0FF7FFFFFFFF7FFFF39
:102800000080000280B582B000AF786039607B68DC
:1028100041229B5CDBB2202B38D17B6840229B5C41
:10282000012B01D1022332E07B684022012199541F
:102830007B684122242199547B681B681A687B6855
:102840001B6801218A431A607B681B681A687B68D1
:102850001B6811490A401A607B681B6819687B680D
:102860001B683A680A431A607B681B681A687B68B1
:102870001B6801210A431A607B6841222021995478
:102880007B68402200219954002300E002231800B5
:10289000BD4602B080BDC046FFEFFFFF80B584B0EB
:1028A00000AF786039607B6841229B5CDBB2202BF3
:1028B00039D17B6840229B5C012B01D1022333E09C
:1028C0007B684022012199547B684122242199543C
:1028D0007B681B681A687B681B6801218A431A6041
:1028E0007B681B681B68FB60FB68114A1340FB6038
:1028F0003B681B02FA681343FB607B681B68FA683D
:102900001A607B681B681A687B681B6801210A4390
:102910001A607B684122202199547B684022002163
:102920009954002300E002231800BD4604B080BD86
:10293000FFF0FFFF80B584B000AF78607B68002BAC
:1029400001D101233DE07B681B68204A1A607B6847
:102950001B681F4A1A607B681B687A6852685A6055
:102960007B681B687A6892689A60FEF79DFF030097
:10297000FB600EE0FEF798FF0200FB68D31A2A2BDB
:1029800007D97B681B68DB680722134001D003234B
:1029900017E07B681B68DB6807221340EAD17B687D
:1029A0001B681A697B68DB689A4205D07B681B68E4
:1029B0007A68D2681A6103E07B681B68054A1A606E
:1029C00000231800BD4604B080BDC046CCCC00003A
:1029D00055550000AAAA0000B0B58AB000AF7860D3
:1029E0007B68002B02D1012300F06CFBC84BDB6835
:1029F0000C221340FB61C64BDA6880235B02134054
:102A0000BB617B681B680122134000D17DE0FB693C
:102A1000082B07D0FB690C2B12D1BA6980235B020B
:102A20009A420DD1BA4B1A6880239B02134000D101
:102A30006AE07B685B68002B66D1012300F042FBF3
:102A40007B685A6880235B029A4207D1B04B1A68B0
:102A5000AF4B802149020A431A6027E07B685A681D
:102A6000A023DB029A420ED1A94B1A68A84B802101
:102A7000C9020A431A60A64B1A68A54B8021490275
:102A80000A431A6012E0A24B1A68A14BA1490A40FE
:102A90001A609F4B1A6880235B021340FB60FB683F
:102AA0009B4B1A689A4B9C490A401A607B685B688A
:102AB000002B14D0FEF7F8FE03007B6108E0FEF760
:102AC000F3FE02007B69D31A642B01D90323F9E2D8
:102AD0008F4B1A6880239B021340F0D015E0FEF75D
:102AE000E3FE03007B6108E0FEF7DEFE02007B6987
:102AF000D31A642B01D90323E4E2854B1A6880239F
:102B00009B021340F0D100E0C0467B681B680222A4
:102B1000134000D199E07B68DB687B627B6A2022EE
:102B2000134009D07A4B1A68794B20210A431A6066
:102B30007B6A202293437B62FB69042B05D0FB69EF
:102B40000C2B3ED1BB69002B3BD1714B1B6804227F
:102B5000134004D07B6A002B01D10123B2E26C4BFD
:102B60005B686E4A134019007B681B691A02684B48
:102B70000A435A60664B1B68092293431900644B51
:102B80007A6A0A431A6000F0EBFB0100604BDB68D5
:102B90001B090F221340624AD35C0A00DA40614BE2
:102BA0001A60614B1B6813257C191800FEF736FE6E
:102BB000030023707B191B78002B46D07B191B78F0
:102BC00080E27B6A002B27D0514B1B68092293437C
:102BD00019004F4B7A6A0A431A60FEF765FE03003C
:102BE0007B6108E0FEF760FE02007B69D31A022BCE
:102BF00001D9032366E2464B1B6804221340F1D03F
:102C0000434B5B68454A134019007B681B691A02F5
:102C10003F4B0A435A6018E03D4B1A683C4B012178
:102C20008A431A60FEF740FE03007B6108E0FEF76E
:102C30003BFE02007B69D31A022B01D9032341E238
:102C4000334B1B6804221340F1D17B681B681022B0
:102C5000134000D1A1E0FB69002B40D12C4B1A6836
:102C600080239B00134005D07B689B69002B01D11A
:102C7000012327E2264B5B682C4A134019007B682E
:102C80001A6A234B0A435A60214B5B681B02190ADC
:102C90007B68DB691A061E4B0A435A607B681B6A15
:102CA0005B0B0133802212029A40194BDB681B092F
:102CB0000F210B401A49CB5CDA401A4B1A601A4BB1
:102CC0001B6813257C191800FEF7A8FD030023706C
:102CD0007B191B78002B60D07B191B78F2E17B6895
:102CE0009B69002B3FD00A4B1A68094B8021490091
:102CF0000A431A60FEF7D8FD03007B6118E0FEF777
:102D0000D3FD02007B69D31A022B11D90323D9E129
:102D100000100240FFFFFEFFFFFFFBFFFFE0FFFF91
:102D2000E06500080000002004000020FF1FFFFFF6
:102D3000C94B1A6880239B001340E0D0C64B5B68E8
:102D4000C64A134019007B681A6AC34B0A435A608B
:102D5000C14B5B681B02190A7B68DB691A06BE4B14
:102D60000A435A6019E0BC4B1A68BB4BBC490A4085
:102D70001A60FEF799FD03007B6108E0FEF794FD01
:102D800002007B69D31A022B01D903239AE1B24BCB
:102D90001A6880239B001340F0D17B681B680822CF
:102DA000134036D07B685B69002B19D0AA4B1A6D93
:102DB000A94B01210A431A65FEF776FD03007B61EA
:102DC00008E0FEF771FD02007B69D31A022B01D9DE
:102DD000032377E1A04B1B6D02221340F1D018E0D2
:102DE0009D4B1A6D9C4B01218A431A65FEF75CFDD1
:102DF00003007B6108E0FEF757FD02007B69D31AF0
:102E0000022B01D903235DE1934B1B6D022213407A
:102E1000F1D17B681B680422134000D1AEE023206F
:102E20003B1800221A708C4B9A6B80235B05134071
:102E300009D1894B9A6B884B802149050A439A63D3
:102E40003B1801221A70874B1A6880235B001340DD
:102E50001AD1844B1A68834B802149000A431A60B7
:102E6000FEF722FD03007B6108E0FEF71DFD020076
:102E70007B69D31A642B01D9032323E1794B1A68A8
:102E800080235B001340F0D07B689A6880235B004E
:102E90009A4207D1704B1A6D6F4B802149000A434B
:102EA0001A6531E07B689B68002B0CD16A4B1A6D68
:102EB000694B6B490A401A65674B1A6D664B6A4944
:102EC0000A401A6520E07B689A68A023DB009A42DA
:102ED0000ED1614B1A6D604B8021C9000A431A65FF
:102EE0005D4B1A6D5C4B802149000A431A650BE06B
:102EF000594B1A6D584B5A490A401A65564B1A6D70
:102F0000554B59490A401A657B689B68002B15D0C0
:102F1000FEF7CAFC03007B6109E0FEF7C5FC020076
:102F20007B69D31A514A934201D90323CAE04A4B21
:102F30001A6D80239B001340EFD014E0FEF7B4FC21
:102F400003007B6109E0FEF7AFFC02007B69D31A46
:102F5000464A934201D90323B4E03F4B1A6D8023C4
:102F60009B001340EFD12323FB181B78012B05D1C5
:102F7000394B9A6B384B3E490A409A637B685B6ACF
:102F8000002B00D19DE0FB690C2B00D176E07B6823
:102F90005B6A022B45D1304B1A682F4B35490A40EA
:102FA0001A60FEF781FC03007B6108E0FEF77CFC01
:102FB00002007B69D31A022B01D9032382E0264B3E
:102FC0001A6880239B041340F0D1234BDB682A4A04
:102FD000134019007B689A6A7B68DB6A1A437B6836
:102FE0001B6B1A431C4B0A43DA601B4B1A681A4BC3
:102FF000802149040A431A60FEF756FC03007B61F6
:1030000008E0FEF751FC02007B69D31A022B01D9BC
:10301000032357E0104B1A6880239B041340F0D021
:103020004FE00D4B1A680C4B12490A401A60FEF72C
:103030003BFC03007B6108E0FEF736FC02007B6985
:10304000D31A022B01D903233CE0034B1A688023D7
:103050009B041340F0D134E000100240FF1FFFFF3B
:10306000FFFEFFFF00700040FFFBFFFF8813000022
:10307000FFFFFFEFFFFFFFFEFFFF02FF7B685B6AC2
:10308000012B01D101231DE0104BDB68BB61BA6944
:1030900080235B021A407B689B6A9A420FD1BA690F
:1030A000F0239B031A407B68DB6A9A4207D1BA6916
:1030B000C0231B041A407B681B6B9A4201D001237A
:1030C00000E000231800BD460AB0B0BD0010024069
:1030D000B0B584B000AF786039607B68002B01D157
:1030E000012328E1964B1B68012213403A689A425B
:1030F0001ED9934B1B68012293431900904B3A68E9
:103100000A431A60FEF7D0FB0300FB6009E0FEF7FC
:10311000CBFB0200FB68D31A8A4A934201D90323EE
:1031200009E1874B1B68012213403A689A42EED1AD
:103130007B681B680222134009D0834BDB68F022B6
:10314000934319007B689A687F4B0A43DA607B6877
:103150001B680122134000D189E07B685B68022B69
:1031600007D1794B1A6880239B02134020D1012399
:10317000E1E07B685B68032B07D1734B1A688023FF
:103180009B04134014D10123D5E07B685B68012BBD
:1031900006D16D4B1B680422134009D10123CAE0FC
:1031A000694B1A6880239B00134001D10123C2E0C0
:1031B000654BDB680322934319007B685A68624BB6
:1031C0000A43DA60FEF770FB0300FB607B685B6814
:1031D000022B11D109E0FEF767FB0200FB68D31A4E
:1031E000584A934201D90323A5E0574BDB680C22D0
:1031F0001340082BEFD13AE07B685B68032B11D1B9
:1032000009E0FEF751FB0200FB68D31A4D4A9342D6
:1032100001D903238FE04C4BDB680C2213400C2BAD
:10322000EFD124E07B685B68012B1BD109E0FEF73E
:103230003BFB0200FB68D31A424A934201D90323A5
:1032400079E0414BDB680C221340042BEFD10EE0F8
:10325000FEF72AFB0200FB68D31A3A4A934201D9CF
:10326000032368E0384BDB680C221340F0D1344B69
:103270001B68012213403A689A421ED2304B1B68E9
:103280000122934319002E4B3A680A431A60FEF755
:103290000BFB0300FB6009E0FEF706FB0200FB6886
:1032A000D31A284A934201D9032344E0244B1B68D4
:1032B000012213403A689A42EED17B681B680422CF
:1032C000134009D0204BDB68204A134019007B686B
:1032D000DA681D4B0A43DA607B681B6808221340DA
:1032E0000AD0194BDB681A4A134019007B681B6926
:1032F000DA00154B0A43DA6000F032F80100124B95
:10330000DB681B090F221340124AD35C0A00DA4023
:10331000114B1A60114B1B680B257C191800FEF726
:103320007DFA030023707B191B78002B02D07B19D8
:103330001B7800E000231800BD4604B0B0BDC046B5
:10334000002002408813000000100240FFF8FFFF39
:10335000FFC7FFFFE0650008000000200400002018
:1033600080B586B000AF3C4BDB68FB60FB680C228D
:1033700013400C2B13D05CD8042B02D0082B0BD09D
:1033800057E0354B1B681022134002D0334B3B6192
:103390005DE0334B3B615AE0324B3B6157E0FB68E9
:1033A0009B0C0F221340304AD35CBB60FB689B0D23
:1033B0000322134001337B60274BDA6880235B02D2
:1033C00013400FD0B9680A005201521A93019B1A98
:1033D000DB005B185B0279681800FCF79FFE0300B6
:1033E0007B6123E01C4B1B68102213400FD0B9688F
:1033F0000A005201521A93019B1ADB005B181B0250
:1034000079681800FCF78AFE03007B610EE0B9685A
:103410000A005201521A93019B1ADB005B189B02AF
:1034200079681800FCF77AFE03007B617B693B61D9
:103430000DE0094B5B685B0B072213403B603B6868
:103440000133802212029A4013003B61C0463B695F
:103450001800BD4606B080BD0010024000093D00C6
:103460000024F40000127A00F865000880B500AF6F
:10347000024B1B681800BD4680BDC04600000020FE
:1034800080B500AFFFF7F2FF0100064BDB681B0AB7
:1034900007221340044AD35CD9400B001800BD46F4
:1034A00080BDC04600100240F065000880B500AF46
:1034B000FFF7DCFF0100064BDB68DB0A0722134045
:1034C000044AD35CD9400B001800BD4680BDC046FD
:1034D00000100240F065000880B586B000AF78604B
:1034E00017203B1800221A707B681B6820221340AB
:1034F00000D1C7E0844B9A6B80235B05134009D150
:10350000814B9A6B804B802149050A439A633B1893
:1035100001221A707D4B1A6880235B0013401AD178
:103520007A4B1A68794B802149000A431A60FEF7EA
:10353000BBF903003B6108E0FEF7B6F902003B6906
:10354000D31A642B01D90323D9E0704B1A68802366
:103550005B001340F0D06C4B1A68C0239B031340F0
:10356000FB607B685A68C0239B031340FA689A4249
:1035700013D07B685A68C0239B021A40C0239B0269
:103580009A420AD1604B1A6880239B021A4080231A
:103590009B029A4201D10123B1E05B4B1A6DC0231B
:1035A0009B021340FB60FB68002B3BD07B685A6892
:1035B000C0239B021340FA689A4233D07B681B6891
:1035C000202213402ED0504B1B6D514A1340FB60FC
:1035D0004D4B1A6D4C4B802109030A431A654A4B27
:1035E0001A6D494B4B490A401A65474BFA681A65F0
:1035F000FA6880235B00134014D0FEF755F90300EE
:103600003B6109E0FEF750F902003B69D31A424AD8
:10361000934201D9032372E03B4B1A6D80239B0038
:103620001340EFD07B681B68202213401FD07B68BB
:103630005A68C0239B021A40C0239B029A420CD1B5
:10364000314B1B68354A134019007B685A68C02308
:103650009B031A402C4B0A431A602B4B196D7B6855
:103660005A68C0239B021A40274B0A431A65172346
:10367000FB181B78012B05D1234B9A6B224B284951
:103680000A409A637B681B680222134009D01E4BD4
:10369000DB6C0C22934319007B689A681A4B0A432F
:1036A000DA647B681B680422134009D0164BDB6C7C
:1036B0001C4A134019007B68DA68134B0A43DA642A
:1036C0007B681B680822134009D00F4BDB6C164A3D
:1036D000134019007B681A690B4B0A43DA647B6854
:1036E0001B688022134009D0074BDB6C0F4A134044
:1036F00019007B685A69044B0A43DA6400231800F6
:10370000BD4606B080BDC0460010024000700040BB
:10371000FFFFFCFFFFFFF7FF88130000FFFFCFFF55
:10372000FFFFFFEFFFF3FFFFFFCFFFFFFFFFF3FF01
:1037300080B582B000AF78607B68002B01D1012397
:1037400032E07B6839229B5CDBB2002B07D17B68BF
:103750003822002199547B681800FDF751FE7B68E0
:103760003922022199547B681A687B680433190056
:10377000100000F0F3FA7B683E22012199547B6827
:103780003A22012199547B683B22012199547B689C
:103790003C22012199547B683D22012199547B6888
:1037A00039220121995400231800BD4602B080BD82
:1037B00080B582B000AF78607B68002B01D1012317
:1037C00032E07B6839229B5CDBB2002B07D17B683F
:1037D0003822002199547B68180000F029F87B6892
:1037E0003922022199547B681A687B6804331900D6
:1037F000100000F0B3FA7B683E22012199547B68E7
:103800003A22012199547B683B22012199547B681B
:103810003C22012199547B683D22012199547B6807
:1038200039220121995400231800BD4602B080BD01
:1038300080B582B000AF7860C046BD4602B080BDA2
:1038400080B584B000AF78607B681B68DB68FB6084
:103850007B681B681B69BB60BB680222134021D0D8
:10386000FB68022213401DD07B681B680322524272
:103870001A617B6801221A767B681B689B690322A8
:10388000134004D07B68180000F050FA07E07B6812
:10389000180000F043FA7B68180000F04FFA7B68CC
:1038A00000221A76BB680422134022D0FB6804224F
:1038B00013401ED07B681B68052252421A617B6848
:1038C00002221A767B681B689A69C0239B0013400A
:1038D00004D07B68180000F029FA07E07B68180024
:1038E00000F01CFA7B68180000F028FA7B680022C0
:1038F0001A76BB680822134021D0FB6808221340C7
:103900001DD07B681B68092252421A617B68042221
:103910001A767B681B68DB690322134004D07B683E
:10392000180000F003FA07E07B68180000F0F6F9D1
:103930007B68180000F002FA7B6800221A76BB68E8
:103940001022134022D0FB68102213401ED07B6847
:103950001B68112252421A617B6808221A767B6822
:103960001B68DA69C0239B00134004D07B681800F1
:1039700000F0DCF907E07B68180000F0CFF97B6805
:10398000180000F0DBF97B6800221A76BB68012280
:1039900013400CD0FB680122134008D07B681B68E1
:1039A000022252421A617B68180000F0AFF9BB682E
:1039B000402213400CD0FB684022134008D07B68A3
:1039C0001B68412252421A617B68180000F0BEF960
:1039D000C046BD4604B080BD80B586B000AFF8607B
:1039E000B9607A601723FB1800221A70FB6838222E
:1039F0009B5C012B01D10223ADE0FB683822012141
:103A000099547B680C2B00D176E07B680C2B00D995
:103A100095E07B68082B4ED07B68082B00D98EE0A0
:103A20007B68002B03D07B68042B21D087E0FB68E8
:103A30001B68BA681100180000F0E0F9FB681B6809
:103A40009A69FB681B6808210A439A61FB681B6836
:103A50009A69FB681B6804218A439A61FB681B68AA
:103A60009969BB68DA68FB681B680A439A616BE076
:103A7000FB681B68BA681100180000F0FBF9FB68CE
:103A80001B689A69FB681B68802109010A439A61D7
:103A9000FB681B689A69FB681B6831490A409A6198
:103AA000FB681B689969BB68DB681A02FB681B68C6
:103AB0000A439A6148E0FB681B68BA681100180065
:103AC00000F01AFAFB681B68DA69FB681B680821BA
:103AD0000A43DA61FB681B68DA69FB681B6804212A
:103AE0008A43DA61FB681B68D969BB68DA68FB68DE
:103AF0001B680A43DA6127E0FB681B68BA6811009B
:103B0000180000F039FAFB681B68DA69FB681B686B
:103B1000802109010A43DA61FB681B68DA69FB68E6
:103B20001B680F490A40DA61FB681B68D969BB68EA
:103B3000DB681A02FB681B680A43DA6104E017239A
:103B4000FB1801221A70C046FB68382200219954E4
:103B50001723FB181B781800BD4606B080BDC04671
:103B6000FFFBFFFF80B584B000AF786039600F23A2
:103B7000FB1800221A707B6838229B5C012B01D154
:103B80000223BCE07B683822012199547B683922EA
:103B9000022199547B681B689B68BB60BB687722D5
:103BA0009343BB60BB68584A1340BB607B681B688B
:103BB000BA689A603B681B6880229201934240D0A9
:103BC00080229201934200D988E0802252019342E0
:103BD00000D188E080225201934200D97EE0702B10
:103BE00018D000D97AE0602B4FD000D976E0502B66
:103BF0003BD000D972E0402B57D000D96EE0302B7B
:103C000063D06BD8202B60D068D8002B5DD0102BF0
:103C10005BD063E07B6818683B6899683B685A68CA
:103C20003B68DB6800F068FA7B681B689B68BB60D8
:103C3000BB6877221343BB607B681B68BA689A60D5
:103C400052E07B6818683B6899683B685A683B6833
:103C5000DB6800F051FA7B681B689A687B681B6818
:103C60008021C9010A439A603EE07B6818683B687E
:103C700059683B68DB681A0000F0C4F97B681B6870
:103C80005021180000F01EFA2EE07B6818683B688F
:103C900059683B68DB681A0000F0E2F97B681B6832
:103CA0006021180000F00EFA1EE07B6818683B687F
:103CB00059683B68DB681A0000F0A4F97B681B6850
:103CC0004021180000F0FEF90EE07B681A683B689E
:103CD0001B681900100000F0F5F905E00F23FB1830
:103CE00001221A7000E0C0467B68392201219954F4
:103CF0007B683822002199540F23FB181B78180089
:103D0000BD4604B080BDC046FF00FFFF80B582B055
:103D100000AF7860C046BD4602B080BD80B582B0BD
:103D200000AF7860C046BD4602B080BD80B582B0AD
:103D300000AF7860C046BD4602B080BD80B582B09D
:103D400000AF7860C046BD4602B080BD80B582B08D
:103D500000AF7860C046BD4602B080BD80B584B07B
:103D600000AF786039607B681B68FB607A688023ED
:103D7000DB059A4203D07B681E4A934208D1FB6858
:103D800070229343FB603B685B68FA681343FB60F7
:103D90007A688023DB059A4203D07B68154A9342F8
:103DA00008D1FB68144A1340FB603B68DB68FA6883
:103DB0001343FB60FB68802293431A003B681B6936
:103DC0001343FB603B689A687B68DA623B681A6859
:103DD0007B689A627B681B6804221A437B681A60BE
:103DE0007B6801225A617B68FA681A60C046BD464A
:103DF00004B080BD00080140FFFCFFFF80B586B025
:103E000000AF786039607B681B6A7B617B681B6AE6
:103E1000012293431A007B681A627B685B683B61EE
:103E20007B689B69FB60FB6870229343FB60FB68C7
:103E300003229343FB603B681B68FA681343FB60F3
:103E40007B69022293437B613B689B687A691343D9
:103E50007B617B683A695A607B68FA689A613B6863
:103E60005A687B685A637B687A691A62C046BD46A5
:103E700006B080BD80B586B000AF786039607B68E1
:103E80001B6A7B617B681B6A102293431A007B6864
:103E90001A627B685B683B617B689B69FB60FB68BF
:103EA000134A1340FB60FB68124A1340FB603B68F7
:103EB0001B681B02FA681343FB607B692022934353
:103EC0007B613B689B681B017A6913437B617B685C
:103ED0003A695A607B68FA689A613B685A687B68FD
:103EE0009A637B687A691A62C046BD4606B080BD97
:103EF000FF8FFFFFFFFCFFFF80B586B000AF78604B
:103F000039607B681B6A7B617B681B6A184A1A40B0
:103F10007B681A627B685B683B617B68DB69FB607E
:103F2000FB6870229343FB60FB6803229343FB60B2
:103F30003B681B68FA681343FB607B690D4A1340BA
:103F40007B613B689B681B027A6913437B617B68DA
:103F50003A695A607B68FA68DA613B685A687B683C
:103F6000DA637B687A691A62C046BD4606B080BDD6
:103F7000FFFEFFFFFFFDFFFF80B586B000AF78605A
:103F800039607B681B6A7B617B681B6A194A1A402F
:103F90007B681A627B685B683B617B68DB69FB60FE
:103FA000FB68154A1340FB60FB68144A1340FB6032
:103FB0003B681B681B02FA681343FB607B69104A6D
:103FC00013407B613B689B681B037A6913437B61E9
:103FD0007B683A695A607B68FA68DA613B685A68BC
:103FE0007B681A647B687A691A62C046BD4606B06F
:103FF00080BDC046FFEFFFFFFF8FFFFFFFFCFFFF0D
:10400000FFDFFFFF80B586B000AFF860B9607A606F
:10401000FB681B6A7B61FB681B6A012293431A00E1
:10402000FB681A62FB689B693B613B69F022934322
:104030003B617B681B013A6913433B617B690A2240
:1040400093437B617A69BB6813437B61FB683A6980
:104050009A61FB687A691A62C046BD4606B080BDA7
:1040600080B586B000AFF860B9607A60FB681B6A03
:104070007B61FB681B6A102293431A00FB681A627B
:10408000FB689B693B613B690D4A13403B617B6860
:104090001B033A6913433B617B69A02293437B6115
:1040A000BB681B017A6913437B61FB683A699A61BB
:1040B000FB687A691A62C046BD4606B080BDC0463C
:1040C000FF0FFFFF80B584B000AF786039607B6878
:1040D0009B68FB60FB6870229343FB603A68FB6857
:1040E000134307221343FB607B68FA689A60C0465B
:1040F000BD4604B080BD000080B586B000AFF8605A
:10410000B9607A603B60FB689B687B617B69094AA8
:1041100013407B613B681A027B681A43BB681343F8
:104120007A6913437B61FB687A699A60C046BD4631
:1041300006B080BDFF00FFFF80B584B000AF78609F
:1041400039607B6838229B5C012B01D102233DE062
:104150007B683822012199547B68392202219954C5
:104160007B681B685B68FB607B681B689B68BB6047
:10417000FB6870229343FB603B681B68FA6813433B
:10418000FB607B681B68FA685A607B681A6880234A
:10419000DB059A4204D07B681B680E4A93420CD11F
:1041A000BB6880229343BB603B685B68BA6813437B
:1041B000BB607B681B68BA689A607B683922012102
:1041C00099547B6838220021995400231800BD4679
:1041D00004B080BD0008014080B582B000AF7860B7
:1041E0007B68002B01D1012344E07B68DB6F002B4F
:1041F00007D17B687822002199547B681800FDF76D
:1042000067F97B682422DA677B681B681A687B6819
:104210001B6801218A431A607B685B6A002B03D00C
:104220007B68180000F080FB7B68180000F032F912
:104230000300012B01D101231CE07B681B685A6835
:104240007B681B680D490A405A607B681B689A6846
:104250007B681B682A218A439A607B681B681A68FE
:104260007B681B6801210A431A607B68180000F014
:104270000FFC03001800BD4602B080BDFFB7FFFF72
:1042800080B58AB002AFF860B9603B60BB1D1A8090
:10429000FB68DB6F202B00D08CE0BB68002B03D0C9
:1042A000BB1D1B88002B01D1012384E0FB689A68A9
:1042B00080235B019A4209D1FB681B69002B05D161
:1042C000BB680122134001D0012374E0FB68842203
:1042D00000219950FB682122DA67FDF7E5FA030017
:1042E0007B61FB68BA1D502112885A52FB68BA1DC7
:1042F000522112885A52FB689A6880235B019A42C5
:1043000008D1FB681B69002B04D10023FB61BB684B
:10431000BB6103E0BB68FB610023BB612FE07A69EE
:10432000F8683B68009313000022802100F058FCDD
:10433000031E04D0FB682022DA6703233BE0FB69FD
:10434000002B0BD1BB691B881A00FB681B68D205C8
:10435000D20D9A62BB690233BB6107E0FB691A7830
:10436000FB681B689A62FB690133FB61FB685222A0
:104370009B5A9BB2013B99B2FB6852229952FB684F
:1043800052229B5A9BB2002BC9D17A69F8683B68CC
:10439000009313000022402100F022FC031E04D0F1
:1043A000FB682022DA67032305E0FB682022DA6736
:1043B000002300E002231800BD4608B080BD0000C5
:1043C00080B588B000AFF860B960BB1D1A80FB688B
:1043D00080229B58202B4AD1BB68002B03D0BB1DE9
:1043E0001B88002B01D1012342E0FB689A688023DF
:1043F0005B019A4209D1FB681B69002B05D1BB68A0
:104400000122134001D0012332E0FB6800221A662A
:10441000FB681B68184A934220D0FB681B685A68E7
:1044200080231B04134019D0EFF310833B613B69D9
:10443000FB6101237B617B6983F31088C046FB68C5
:104440001B681A68FB681B688021C9040A431A604C
:10445000FB69BB61BB6983F31088C046BB1D1A882A
:10446000B968FB68180000F02BFC030000E0022391
:104470001800BD4608B080BD0048004080B582B03D
:1044800000AF78600A00BB1C1A80C046BD4602B06F
:1044900080BD0000B0B58EB000AFF8611A231822BD
:1044A0009B18DB1900221A70FB699A68FB691B696B
:1044B0001A43FB695B691A43FB69DB6913437B633E
:1044C000FB691B681B68B44A13401900FB691B6831
:1044D0007A6B0A431A60FB691B685B68AF4A13403A
:1044E0001900FB69DA68FB691B680A435A60FB69BB
:1044F0009B697B63FB691B68A94A934204D0FB69F3
:104500001B6A7A6B13437B63FB691B689B68A54A34
:1045100013401900FB691B687A6B0A439A60FB69B8
:104520001B68A14A934231D1A04BDB6C0C22134093
:104530000C2B1DD023D8082B0CD020D8002B02D058
:10454000042B0ED01BE01B2318229B18DB19002222
:104550001A7065E01B2318229B18DB1902221A70BF
:104560005EE01B2318229B18DB1904221A7057E007
:104570001B2318229B18DB1908221A7050E01B23FA
:1045800018229B18DB1910221A7049E0FB691B687E
:10459000834A93423ED1854BDA6CC0231B01134002
:1045A000C0221201934227D0C022120193422AD87E
:1045B00080221201934211D080221201934222D80C
:1045C000002B04D08022D20093420ED01BE01B238C
:1045D00018229B18DB1900221A7021E01B231822D5
:1045E0009B18DB1902221A701AE01B2318229B1851
:1045F000DB1904221A7013E01B2318229B18DB1905
:1046000008221A700CE01B2318229B18DB191022B9
:104610001A7005E01B2318229B18DB1910221A7050
:10462000FB691B685E4A934200D084E01B2318227A
:104630009B18DB191B78082B1DD020DC042B15D010
:104640001DDC002B02D0022B05D018E0FEF718FF6E
:104650000300FB621CE0554B1B681022134002D084
:10466000534BFB6214E0534BFB6211E0FEF778FE04
:104670000300FB620CE080231B02FB6208E00023C6
:10468000FB621A2318229B18DB1901221A70C046FC
:10469000FB6A002B00D12FE1FB695A6813005B0015
:1046A0009B18FA6A9A4205D3FB695B681B03FA6A96
:1046B0009A4206D91A2318229B18DB1901221A7074
:1046C0001AE1FB6A3B6100237B6139697A690B005F
:1046D0001B0E100005021D430B001C02FB695B68EA
:1046E0005B08BB600023FB60B868F968001969418A
:1046F000FB695B683B6000237B603A687B68FBF783
:10470000D3FD02000B001300BB62BA6AC0239B00FA
:104710009A4209D3BA6A80235B039A4204D2FB69A6
:104720001B68BA6ADA60E7E01A2318229B18DB19C3
:1047300001221A70E0E0FB69DA6980231B029A42C9
:1047400000D082E01B2318229B18DB191B78082B52
:1047500034D89A00184BD3181B689F46FEF790FE7A
:104760000300FB6233E0FEF7A1FE0300FB622EE0D4
:104770000E4B1B681022134002D00D4BFB6226E04B
:104780000C4BFB6223E0FEF7EBFD0300FB621EE037
:1047900080231B02FB621AE0F369FFEFFFCFFFFFEC
:1047A00000480040FFF4FFFF0044004000100240BA
:1047B00000093D000024F400046600080023FB62A9
:1047C0001A2318229B18DB1901221A70C046FB6AB3
:1047D000002B00D190E0FB6A5A00FB695B685B0824
:1047E000D218FB695B6819001000FBF797FC030007
:1047F000BB62BB6A0F2B21D9BA6A80235B029A4243
:104800001CD2BB6A9AB20E2018240319DB190F219F
:104810008A431A80BB6A5B089BB20722134099B295
:104820000319DB190219D21912880A431A80FB698D
:104830001B680219D2191288DA605DE01A23182267
:104840009B18DB1901221A7056E01B2318229B18B3
:10485000DB191B78082B22D89A002F4BD3181B6822
:104860009F46FEF70DFE0300FB6221E0FEF71EFEF1
:104870000300FB621CE0294B1B681022134002D08E
:10488000274BFB6214E0274BFB6211E0FEF768FD4B
:104890000300FB620CE080231B02FB6208E00023A4
:1048A000FB621A2318229B18DB1901221A70C046DA
:1048B000FB6A002B20D0FB695B685A08FB6AD218A0
:1048C000FB695B6819001000FBF728FC0300BB6262
:1048D000BB6A0F2B0AD9BA6A80235B029A4205D2BF
:1048E000BB6A9AB2FB691B68DA6005E01A231822DA
:1048F0009B18DB1901221A70FB6900229A66FB697A
:104900000022DA661A2318229B18DB191B7818007C
:10491000BD460EB0B0BDC04628660008001002407B
:1049200000093D000024F40080B582B000AF78603B
:104930007B685B6A082213400BD07B681B685B684E
:104940004A4A134019007B685A6B7B681B680A430C
:104950005A607B685B6A012213400BD07B681B683E
:104960005B68434A134019007B689A6A7B681B683E
:104970000A435A607B685B6A022213400BD07B6853
:104980001B685B683B4A134019007B68DA6A7B68E6
:104990001B680A435A607B685B6A042213400BD091
:1049A0007B681B685B68344A134019007B681A6B8C
:1049B0007B681B680A435A607B685B6A102213405D
:1049C0000BD07B681B689B682C4A134019007B68DE
:1049D0009A6B7B681B680A439A607B685B6A20223B
:1049E00013400BD07B681B689B68254A1340190055
:1049F0007B68DA6B7B681B680A439A607B685B6A3A
:104A0000402213401DD07B681B685B681D4A134021
:104A100019007B681A6C7B681B680A435A607B68C4
:104A20001A6C80235B039A420BD17B681B685B681E
:104A3000154A134019007B685A6C7B681B680A434F
:104A40005A607B685B6A802213400BD07B681B68CE
:104A50005B680E4A134019007B689A6C7B681B6880
:104A60000A435A60C046BD4602B080BDFF7FFFFFCB
:104A7000FFFFFDFFFFFFFEFFFFFFFBFFFFEFFFFF5D
:104A8000FFDFFFFFFFFFEFFFFFFF9FFFFFFFF7FFCE
:104A900080B592B002AF78607B6884220021995083
:104AA000FCF702FF0300FB637B681B681B6808229E
:104AB0001340082B2CD1FB6B802291037868464A67
:104AC0000092002200F08CF8031E21D0EFF3108337
:104AD0007B627B6ABB630123BB62BB6A83F3108882
:104AE000C0467B681B681A687B681B6880218A4304
:104AF0001A60BB6BFB62FB6A83F31088C0467B685D
:104B00002022DA677B6878220021995403235FE032
:104B10007B681B681B6804221340042B46D1FB6B87
:104B20008022D10378682C4A0092002200F058F8C5
:104B3000031E3BD0EFF31083FB60FB687B63012314
:104B40003B613B6983F31088C0467B681B681A6829
:104B50007B681B6821490A401A607B6B7B617B691B
:104B600083F31088C046EFF31083BB61BB693B63DE
:104B70000123FB61FB6983F31088C0467B681B68D7
:104B80009A687B681B6801218A439A603B6B3B6291
:104B90003B6A83F31088C0467B68802220219950AD
:104BA0007B68782200219954032311E07B6820223E
:104BB000DA677B688022202199507B6800221A6680
:104BC0007B6800225A667B68782200219954002372
:104BD0001800BD4610B080BDFFFFFF01DFFEFFFFE4
:104BE00080B584B000AFF860B9603B60FB1D1A70FF
:104BF00051E0BB6901334ED0FCF756FE02003B6822
:104C0000D31ABA699A4202D3BB69002B01D103239C
:104C100051E0FB681B681B68042213403BD0BB6853
:104C2000802B38D0BB68402B35D0FB681B68DB6914
:104C300008221340082B11D1FB681B6808221A6256
:104C4000FB68180000F006F9FB68842208219950DF
:104C5000FB6878220021995401232CE0FB681B6833
:104C6000DA6980231B011A4080231B019A4212D16A
:104C7000FB681B68802212011A62FB68180000F0B2
:104C8000E9F8FB68842220219950FB6878220021F2
:104C9000995403230FE0FB681B68DB69BA68134073
:104CA000BA68D31A5A425341DBB21A00FB1D1B7873
:104CB0009A429ED000231800BD4604B080BD00007B
:104CC00080B590B000AFF860B960BB1D1A80FB687A
:104CD000BA685A65FB68BA1D582112885A52FB6897
:104CE000BA1D5A2112885A52FB6800229A66FB6844
:104CF0009A6880235B019A420DD1FB681B69002BE7
:104D000004D1FB685C22504999522EE0FB685C227A
:104D1000FF21995229E0FB689B68002B0DD1FB68AD
:104D20001B69002B04D1FB685C22FF2199521CE017
:104D3000FB685C227F21995217E0FB689A68802308
:104D40005B059A420DD1FB681B69002B04D1FB68FF
:104D50005C227F21995208E0FB685C223F21995236
:104D600003E0FB685C2200219952FB688422002149
:104D70009950FB68802222219950EFF31083BB6287
:104D8000BB6AFB630123FB62FB6A83F31088C046A6
:104D9000FB681B689A68FB681B6801210A439A60DC
:104DA000FB6B3B633B6B83F31088C046FB689A68E0
:104DB00080235B019A4207D1FB681B69002B03D15A
:104DC000FB68224A9A6602E0FB68214A9A66FB6801
:104DD0001B69002B19D0EFF31083FB61FB697B6328
:104DE00001233B623B6A83F31088C046FB681B6863
:104DF0001A68FB681B68902149000A431A607B6BA4
:104E00007B627B6A83F3108818E0EFF310833B61C9
:104E10003B69BB6301237B617B6983F31088C046D8
:104E2000FB681B681A68FB681B6820210A431A602C
:104E3000BB6BBB61BB6983F31088C04600231800BD
:104E4000BD4610B080BDC046FF010000E150000823
:104E50001D4F000880B58EB000AF7860EFF310836F
:104E60007B617B697B630123BB61BB6983F3108832
:104E7000C0467B681B681A687B681B6826490A4025
:104E80001A607B6BFB61FB6983F31088C046EFF30C
:104E900010833B623B6A3B6301237B627B6A83F343
:104EA0001088C0467B681B689A687B681B68012174
:104EB0008A439A603B6BBB62BB6A83F31088C0462F
:104EC0007B681B6E012B18D1EFF31083BB60BB68AE
:104ED000FB620123FB60FB6883F31088C0467B689C
:104EE0001B681A687B681B6810218A431A60FB6A7A
:104EF0003B613B6983F31088C0467B688022202198
:104F000099507B6800221A667B6800229A66C04628
:104F1000BD460EB080BDC046DFFEFFFF80B594B039
:104F200000AF78604E203B187A685C21525A1A8094
:104F30007B6880229B58222B00D0BFE07B681B68D7
:104F40005A6A4C217B181A807B181B88DAB23B18EE
:104F50001B88D9B27B685B6D0A40D2B21A707B683D
:104F60005B6D5A1C7B685A657B685A229B5A9BB2C0
:104F7000013B99B27B685A2299527B685A229B5A0C
:104F80009BB2002B00D0A1E0EFF310837B627B6A21
:104F9000BB640123BB62BB6A83F31088C0467B6895
:104FA0001B681A687B681B684A490A401A60BB6C18
:104FB000FB62FB6A83F31088C046EFF310833B6308
:104FC0003B6B7B6401237B637B6B83F31088C04660
:104FD0007B681B689A687B681B6801218A439A601A
:104FE0007B6CBB63BB6B83F31088C0467B688022FD
:104FF000202199507B6800229A667B6800225A66BD
:105000007B681B68344A93421FD07B681B685A68D0
:1050100080231B04134018D0EFF31083BB61BB69DE
:105020003B640123FB61FB6983F31088C0467B6806
:105030001B681A687B681B6828490A401A603B6C29
:105040003B623B6A83F31088C0467B681B6E012B72
:105050002FD17B6800221A66EFF31083FB60FB6898
:10506000FB6301233B613B6983F31088C0467B6887
:105070001B681A687B681B6810218A431A60FB6BE7
:105080007B617B6983F31088C0467B681B68DB69A2
:1050900010221340102B03D17B681B6810221A6268
:1050A0007B6858229A5A7B6811001800FFF7E6F9CE
:1050B0000CE07B681800FCF7CBF807E07B681B6806
:1050C0009A697B681B6808210A439A61C046BD46FD
:1050D00014B080BDDFFEFFFF00480040FFFFFFFB74
:1050E00080B594B000AF78604E203B187A685C21A0
:1050F000525A1A807B6880229B58222B00D0BFE036
:105100007B681B685A6A4C217B181A807B685B6D30
:10511000BB647B183A181B88128813409AB2BB6C88
:105120001A807B685B6D9A1C7B685A657B685A2283
:105130009B5A9BB2013B99B27B685A2299527B6879
:105140005A229B5A9BB2002B00D0A1E0EFF31083B0
:105150003B623B6A7B6401237B627B6A83F310883A
:10516000C0467B681B681A687B681B684A490A400E
:105170001A607B6CBB62BB6A83F31088C046EFF396
:105180001083FB62FB6A3B6401233B633B6B83F34D
:105190001088C0467B681B689A687B681B68012181
:1051A0008A439A603B6C7B637B6B83F31088C046B9
:1051B0007B688022202199507B6800229A667B6858
:1051C00000225A667B681B68344A93421FD07B6872
:1051D0001B685A6880231B04134018D0EFF3108318
:1051E0007B617B69FB630123BB61BB6983F310882F
:1051F000C0467B681B681A687B681B6828490A40A0
:105200001A60FB6BFB61FB6983F31088C0467B6807
:105210001B6E012B2FD17B6800221A66EFF31083DF
:10522000BB60BB68BB630123FB60FB6883F3108832
:10523000C0467B681B681A687B681B6810218A431C
:105240001A60BB6B3B613B6983F31088C0467B6887
:105250001B68DB6910221340102B03D17B681B688D
:1052600010221A627B6858229A5A7B681100180033
:10527000FFF704F90CE07B681800FBF7E9FF07E093
:105280007B681B689A697B681B6808210A439A61DE
:10529000C046BD4614B080BDDFFEFFFF00480040A1
:1052A000FFFFFFFB002310B5040003604360836031
:1052B00081814366C28103614361836119000822D1
:1052C0005C3000F045F90B4B246263620A4BA36229
:1052D0000A4BE3620A4B23630A4B9C4205D00A4BFC
:1052E0009C4202D0094B9C4203D12000583000F070
:1052F000AFF910BDB9540008E15400081955000871
:105300004555000864030020CC030020340400202D
:1053100010B5034A0349044800F06CF810BDC046BC
:105320000C000020996100081C00002041680B4B14
:1053300010B50400994201D000F02EFFA168084B7F
:10534000994202D0200000F027FFE168054B994206
:1053500002D0200000F020FF10BDC04664030020F2
:10536000CC0300203404002010B5094B094A042165
:105370001A6009480022FFF795FF0122092107481A
:10538000FFF790FF022212210548FFF78BFF10BDA7
:105390009C0400201153000864030020CC0300206B
:1053A0003404002010B5024800F053F910BDC04687
:1053B000A504002010B5024800F04CF910BDC0460D
:1053C000A504002010B50400FFF7ECFF236A002BB2
:1053D00002D0FFF7EFFF10BD044B2362044B1B68A4
:1053E000002BF6D1FFF7C0FFF3E7C0462D530008AE
:1053F0009C040020F7B51400002600900191A568D8
:105400006768013F04D52468002CF8D13000FEBD48
:10541000AB89012B08D90E22AB5E013304D02900E1
:105420000098019B984706436835EAE70FB407B533
:10543000054904AB086804CB8168019300F08EFB3A
:1054400003B008BC04B01847180000200CB430B5F5
:10545000184B0C001D689DB0002908DA8B23012031
:105460002B6040421DB030BC08BC02B018478223FC
:105470006A469B009382002302901B9306909942F8
:1054800000D04B1E0493079301236A465B42D382EC
:10549000280021AB209A02A9019300F039FA431C9D
:1054A00001DA8B232B60002CDCD00022029B1A70C7
:1054B000D8E7C0461800002070B50C000E25495FE3
:1054C00000F074F8002803DB636D1B18636570BD82
:1054D000A389024A1340A381F9E7C046FFEFFFFF0B
:1054E000F8B51F008B8905000C001600DB0505D5FB
:1054F0000E23C95E0022022300F044F8A389054A66
:1055000028001340A38132000E23E15E3B0000F02F
:1055100061F8F8BDFFEFFFFF70B50C000E25495F85
:1055200000F030F8A389421C03D1054A1340A3813F
:1055300070BD802252011343A3816065F8E7C04625
:10554000FFEFFFFF10B50E23C95E00F009F810BD94
:1055500003008218934200D1704719700133F9E7B4
:10556000002370B5064D040008002B60FCF78BF893
:10557000431C03D12B68002B00D0236070BDC046B4
:10558000A004002070B50400080011001A000023D8
:10559000054D2B60FCF798F8431C03D12B68002BBA
:1055A00000D0236070BDC046A004002070B5040088
:1055B000080011001A000023054D2B60FCF72AF8A3
:1055C000431C03D12B68002B00D0236070BDC04664
:1055D000A004002070B50400080011001A00002388
:1055E000054D2B60FCF733F8431C03D12B68002BCF
:1055F00000D0236070BDC046A0040020014B186895
:105600007047C0461800002070B500260C4C0D4DA8
:10561000641BA410A64209D1002600F089FF0A4CA1
:105620000A4D641BA410A64205D170BDB300EB580F
:1056300098470136EEE7B300EB5898470136F2E79A
:1056400088660008886600088C660008886600087E
:10565000704770477047000070B505000C1E10D0F1
:10566000043C2368002B00DAE418280000F0E0F87E
:105670001D4A1368002B05D163601460280000F0F8
:10568000DFF870BDA34208D9206821188B42F3D1FE
:1056900019685B6809182160EEE71A005B68002B47
:1056A00001D0A342F9D911685018A0420BD120684B
:1056B0000918501811608342E0D118685B684118DE
:1056C00011605360DAE7A04202D90C232B60D5E7C2
:1056D000206821188B4203D119685B680918216082
:1056E00063605460CAE7C046AC04002070B50F4E3A
:1056F0000D0031680400002902D100F02BFE30605B
:105700002900200000F026FE431C03D101256D4234
:10571000280070BD0323C51C9D43A842F8D0291A58
:10572000200000F017FE0130F2D1EFE7A8040020BE
:10573000F7B50322CB1C9343083305001F000C2B45
:1057400034D20C27B94233D8280000F071F8374E14
:1057500033681C00002C2FD139002800FFF7C6FF4A
:105760000400431C5FD134680094009B002B4AD195
:10577000002C52D023682800E3180099019300F010
:10578000E9FD019B834248D123682800FF1A3900B4
:10579000FFF7ACFF013040D02368DB19236033688A
:1057A0005A68002A33D1009B336019E0002BC9DA14
:1057B0000C232B600020FEBD2168C91B20D40B29BF
:1057C0000AD9E2192760A34204D1326063681160EC
:1057D000536005E05A60F9E76268A3420ED1326077
:1057E000280000F02DF8200007220B30231D9043E5
:1057F000C21A9842DFD01B1AA350DCE75A60EFE7C9
:1058000023006468A6E7009C63680093ADE71A0074
:105810005B68A342FBD10023DAE70C2328002B604E
:1058200000F00EF8C6E70760DAE7C046AC040020D7
:1058300010B50248FFF70DFF10BDC046A4040020BC
:1058400010B50248FFF706FF10BDC046A4040020B3
:10585000F0B58E6885B01F000C000B6802900392B3
:10586000BE4230D80C21625E9021C9000A4228D085
:10587000032021695B1A0193636943430198DD0F9B
:10588000ED187B1C1B186D10AB4200D91D00520592
:1058900028D529000298FFF74BFF061E2CD0019A4D
:1058A000216900F074FDA289184B1A40802313432C
:1058B000A381019B2661F61826603E006561ED1A02
:1058C000A560BE4200D93E0032000399206800F076
:1058D0002FFD0020A3689B1BA36023689B192360F6
:1058E00005B0F0BD2A00029800F05AFD061EE0D176
:1058F00021690298FFF7B0FE0C230120029A404272
:105900001360A28934331343A381E9E77FFBFFFFD0
:10591000F0B5A1B003901D008B890F0016001B0687
:1059200011D50B69002B0ED14021FFF701FF386024
:105930003861002805D10C23039A136001204042EE
:10594000CFE040237B61002308AC636120336376A2
:105950001033A376079535002B78002B01D0252B2B
:1059600048D1AB1B0593B5420BD0320039000398E8
:10597000FFF76EFF013000D1AEE06369059A9B1816
:1059800063612B78002B00D1A6E001220023524254
:10599000626004A9543252186E1C2360E360A36055
:1059A0001370A365544B052218003178059300F05D
:1059B000E3FC751C00281FD12268D30604D55323AD
:1059C00004A95B1820211970130704D5532304A9D7
:1059D0005B182B21197033782A2B16D03500002143
:1059E0000A20E3682A786E1C303A092A50D9002927
:1059F00011D117E00135AFE7059B2268C01A0123DA
:105A0000834013432E002360CCE7079B191D1B68BE
:105A10000791002B01DB0B9304E05B42E360022360
:105A2000134323602B782E2B0CD16B782A2B34D187
:105A3000079B02351A1D1B680792002B01DA012310
:105A40005B4209932D4E03223000297800F094FC2C
:105A5000002806D04023801B834022680135134371
:105A600023602978062226486E1C217600F084FCEB
:105A7000002838D0234B002B22D10722079B073365
:105A80009343083307936369049A9B18636162E741
:105A90004343350001219B18A4E700230A20190085
:105AA000013563602A786E1C303A092A03D9002B2D
:105AB000C8D00991C6E74143350001238918F1E7B1
:105AC00007AA009221003A000F4B039800E000BFA4
:105AD0000490049B0133D6D1BB890D985B0600D599
